{
  "contractName": "Sponsor",
  "abi": [
    {
      "constant": false,
      "inputs": [
        {
          "internalType": "uint256",
          "name": "amount",
          "type": "uint256"
        }
      ],
      "name": "add",
      "outputs": [],
      "payable": false,
      "stateMutability": "nonpayable",
      "type": "function"
    },
    {
      "constant": true,
      "inputs": [],
      "name": "get",
      "outputs": [
        {
          "internalType": "uint256",
          "name": "",
          "type": "uint256"
        }
      ],
      "payable": false,
      "stateMutability": "view",
      "type": "function"
    }
  ],
  "bytecode": "0x608060405234801561001057600080fd5b5060ca8061001f6000396000f3fe6080604052348015600f57600080fd5b506004361060325760003560e01c80631003e2d21460375780636d4ce63c146062575b600080fd5b606060048036036020811015604b57600080fd5b8101908080359060200190929190505050607e565b005b6068608c565b6040518082815260200191505060405180910390f35b806000540160008190555050565b6000805490509056fea265627a7a72315820a09c2c6bde0c5b25a4de9823dce83d3160ab6130c2294c82b095fb56760c11d164736f6c63430005100032",
  "source": "pragma solidity >=0.4.21 <0.7.0;\n \ncontract Sponsor {\n  uint total;\n  function add(uint amount) public {\n    total = total+amount;\n  }\n  function get()  public view returns(uint){\n    return total;\n  }\n}\n",
  "sourcePath": "C:\\Users\\EomJaewoong\\git\\TIL\\Blockchain\\2-1. ether_sponser\\ether_sponser\\truffle\\contracts\\Sponsor.sol",
  "compiler": {
    "name": "solc",
    "version": "0.5.16+commit.9c3226ce.Emscripten.clang"
  },
  "schemaVersion": "3.1.0",
  "updatedAt": "2020-04-17T01:43:01.628Z",
  "networkType": "ethereum",
  "devdoc": {
    "methods": {}
  },
  "userdoc": {
    "methods": {}
  }
}